{
  "contractName": "RandomNumberConsumer",
  "abi": [
    {
      "inputs": [],
      "stateMutability": "nonpayable",
      "type": "constructor"
    },
    {
      "anonymous": false,
      "inputs": [
        {
          "indexed": false,
          "internalType": "uint256",
          "name": "randomResult",
          "type": "uint256"
        }
      ],
      "name": "randomNumberGenrated",
      "type": "event"
    },
    {
      "inputs": [],
      "name": "randomResult",
      "outputs": [
        {
          "internalType": "uint256",
          "name": "",
          "type": "uint256"
        }
      ],
      "stateMutability": "view",
      "type": "function"
    },
    {
      "inputs": [
        {
          "internalType": "bytes32",
          "name": "requestId",
          "type": "bytes32"
        },
        {
          "internalType": "uint256",
          "name": "randomness",
          "type": "uint256"
        }
      ],
      "name": "rawFulfillRandomness",
      "outputs": [],
      "stateMutability": "nonpayable",
      "type": "function"
    },
    {
      "inputs": [],
      "name": "getRandomNumber",
      "outputs": [
        {
          "internalType": "bytes32",
          "name": "requestId",
          "type": "bytes32"
        }
      ],
      "stateMutability": "nonpayable",
      "type": "function"
    }
  ],
  "bytecode": "0x60c060405234801561001057600080fd5b5073dd3782915140c8f3b190b5d67eac6dc5760c46e973a36085f69e2889c224210f603d836748e7dc00888173ffffffffffffffffffffffffffffffffffffffff1660a08173ffffffffffffffffffffffffffffffffffffffff1660601b815250508073ffffffffffffffffffffffffffffffffffffffff1660808173ffffffffffffffffffffffffffffffffffffffff1660601b8152505050507f6c3699283bda56ad74f6b855546325b68d482e983852a7a82979cc4807b641f460001b60018190555067016345785d8a000060028190555060805160601c60a05160601c6109d961011c6000396000818160a601526102c6015260008181610147015261028a01526109d96000f3fe608060405234801561001057600080fd5b50600436106100415760003560e01c806342619f661461004657806394985ddd14610064578063dbdff2c114610080575b600080fd5b61004e61009e565b60405161005b919061076a565b60405180910390f35b61007e600480360381019061007991906104d5565b6100a4565b005b610088610140565b60405161009591906106a1565b60405180910390f35b60035481565b7f000000000000000000000000000000000000000000000000000000000000000073ffffffffffffffffffffffffffffffffffffffff163373ffffffffffffffffffffffffffffffffffffffff1614610132576040517f08c379a00000000000000000000000000000000000000000000000000000000081526004016101299061074a565b60405180910390fd5b61013c8282610242565b5050565b60006002547f000000000000000000000000000000000000000000000000000000000000000073ffffffffffffffffffffffffffffffffffffffff166370a08231306040518263ffffffff1660e01b815260040161019e9190610648565b60206040518083038186803b1580156101b657600080fd5b505afa1580156101ca573d6000803e3d6000fd5b505050506040513d601f19601f820116820180604052508101906101ee9190610515565b101561022f576040517f08c379a00000000000000000000000000000000000000000000000000000000081526004016102269061072a565b60405180910390fd5b61023d600154600254610286565b905090565b806003819055507f0a923fe97dc07432db897f6057d4430b871d2f2c47804174fbfecd402123acf160035460405161027a919061076a565b60405180910390a15050565b60007f000000000000000000000000000000000000000000000000000000000000000073ffffffffffffffffffffffffffffffffffffffff16634000aea07f0000000000000000000000000000000000000000000000000000000000000000848660006040516020016102fa9291906106bc565b6040516020818303038152906040526040518463ffffffff1660e01b815260040161032793929190610663565b602060405180830381600087803b15801561034157600080fd5b505af1158015610355573d6000803e3d6000fd5b505050506040513d601f19601f8201168201806040525081019061037991906104a8565b50600061039b84600030600080898152602001908152602001600020546103e5565b90506001600080868152602001908152602001600020546103bc91906107b2565b600080868152602001908152602001600020819055506103dc8482610421565b91505092915050565b6000848484846040516020016103fe94939291906106e5565b6040516020818303038152906040528051906020012060001c9050949350505050565b6000828260405160200161043692919061061c565b60405160208183030381529060405280519060200120905092915050565b6000815190506104638161095e565b92915050565b60008135905061047881610975565b92915050565b60008135905061048d8161098c565b92915050565b6000815190506104a28161098c565b92915050565b6000602082840312156104be576104bd6108d0565b5b60006104cc84828501610454565b91505092915050565b600080604083850312156104ec576104eb6108d0565b5b60006104fa85828601610469565b925050602061050b8582860161047e565b9150509250929050565b60006020828403121561052b5761052a6108d0565b5b600061053984828501610493565b91505092915050565b61054b81610808565b82525050565b61055a81610826565b82525050565b61057161056c82610826565b61088d565b82525050565b600061058282610785565b61058c8185610790565b935061059c81856020860161085a565b6105a5816108d5565b840191505092915050565b60006105bd602b836107a1565b91506105c8826108e6565b604082019050919050565b60006105e0601f836107a1565b91506105eb82610935565b602082019050919050565b6105ff81610850565b82525050565b61061661061182610850565b610897565b82525050565b60006106288285610560565b6020820191506106388284610605565b6020820191508190509392505050565b600060208201905061065d6000830184610542565b92915050565b60006060820190506106786000830186610542565b61068560208301856105f6565b81810360408301526106978184610577565b9050949350505050565b60006020820190506106b66000830184610551565b92915050565b60006040820190506106d16000830185610551565b6106de60208301846105f6565b9392505050565b60006080820190506106fa6000830187610551565b61070760208301866105f6565b6107146040830185610542565b61072160608301846105f6565b95945050505050565b60006020820190508181036000830152610743816105b0565b9050919050565b60006020820190508181036000830152610763816105d3565b9050919050565b600060208201905061077f60008301846105f6565b92915050565b600081519050919050565b600082825260208201905092915050565b600082825260208201905092915050565b60006107bd82610850565b91506107c883610850565b9250827fffffffffffffffffffffffffffffffffffffffffffffffffffffffffffffffff038211156107fd576107fc6108a1565b5b828201905092915050565b600061081382610830565b9050919050565b60008115159050919050565b6000819050919050565b600073ffffffffffffffffffffffffffffffffffffffff82169050919050565b6000819050919050565b60005b8381101561087857808201518184015260208101905061085d565b83811115610887576000848401525b50505050565b6000819050919050565b6000819050919050565b7f4e487b7100000000000000000000000000000000000000000000000000000000600052601160045260246000fd5b600080fd5b6000601f19601f8301169050919050565b7f4e6f7420656e6f756768204c494e4b202d2066696c6c20636f6e74726163742060008201527f7769746820666175636574000000000000000000000000000000000000000000602082015250565b7f4f6e6c7920565246436f6f7264696e61746f722063616e2066756c66696c6c00600082015250565b6109678161081a565b811461097257600080fd5b50565b61097e81610826565b811461098957600080fd5b50565b61099581610850565b81146109a057600080fd5b5056fea264697066735822122095d327aee51797684c8ce8520c289c95904921a128b72677e7f1719b5a29354b64736f6c63430008070033",
  "immutableReferences": {
    "73": [
      {
        "length": 32,
        "start": 327
      },
      {
        "length": 32,
        "start": 650
      }
    ],
    "75": [
      {
        "length": 32,
        "start": 166
      },
      {
        "length": 32,
        "start": 710
      }
    ]
  },
  "source": "// SPDX-License-Identifier: MIT\npragma solidity ^0.8.7;\n\nimport \"@chainlink/contracts/src/v0.8/VRFConsumerBase.sol\";\n\n/**\n * THIS IS AN EXAMPLE CONTRACT WHICH USES HARDCODED VALUES FOR CLARITY.\n * PLEASE DO NOT USE THIS CODE IN PRODUCTION.\n */\n\ncontract RandomNumberConsumer is VRFConsumerBase {\n    \n    event randomNumberGenrated(uint randomResult);\n    bytes32 internal keyHash;\n    uint256 internal fee;\n    \n    uint256 public randomResult;\n    \n    /**\n     * Constructor inherits VRFConsumerBase\n     * \n     * Network: Kovan\n     * Chainlink VRF Coordinator address: 0xdD3782915140c8f3b190B5D67eAc6dc5760C46E9\n     * LINK token address:                0xa36085F69e2889c224210F603D836748e7dC0088\n     * Key Hash: 0x6c3699283bda56ad74f6b855546325b68d482e983852a7a82979cc4807b641f4\n     */\n    constructor() \n        VRFConsumerBase(\n            0xdD3782915140c8f3b190B5D67eAc6dc5760C46E9, // VRF Coordinator\n            0xa36085F69e2889c224210F603D836748e7dC0088  // LINK Token\n        )\n    {\n        keyHash = 0x6c3699283bda56ad74f6b855546325b68d482e983852a7a82979cc4807b641f4;\n        fee = 0.1 * 10 ** 18; // 0.1 LINK (Varies by network)\n    }\n    \n    /** \n     * Requests randomness \n     */\n    function getRandomNumber() public returns (bytes32 requestId) {\n        require(LINK.balanceOf(address(this)) >= fee, \"Not enough LINK - fill contract with faucet\");\n        return requestRandomness(keyHash, fee);\n    }\n\n    /**\n     * Callback function used by VRF Coordinator\n     */\n    function fulfillRandomness(bytes32 requestId, uint256 randomness) internal override {\n        randomResult = randomness;\n        emit randomNumberGenrated(randomResult);\n    }\n\n    // function withdrawLink() external {} - Implement a withdraw function to avoid locking your LINK in the contract\n}\n\n\n//0xF996f72599BEA4267a22FF6cEfbC202039EeFd0D",
  "sourcePath": "/home/jatin/blockchain/cryptozombies/contracts/Random.sol",
  "compiler": {
    "name": "solc",
    "version": "0.8.7+commit.e28d00a7.Emscripten.clang"
  },
  "schemaVersion": "3.4.3",
  "updatedAt": "2021-10-07T16:00:27.261Z",
  "devdoc": {
    "kind": "dev",
    "methods": {},
    "version": 1
  },
  "userdoc": {
    "kind": "user",
    "methods": {
      "constructor": {
        "notice": "Constructor inherits VRFConsumerBase  Network: Kovan Chainlink VRF Coordinator address: 0xdD3782915140c8f3b190B5D67eAc6dc5760C46E9 LINK token address:                0xa36085F69e2889c224210F603D836748e7dC0088 Key Hash: 0x6c3699283bda56ad74f6b855546325b68d482e983852a7a82979cc4807b641f4"
      },
      "getRandomNumber()": {
        "notice": "Requests randomness "
      }
    },
    "notice": "THIS IS AN EXAMPLE CONTRACT WHICH USES HARDCODED VALUES FOR CLARITY. PLEASE DO NOT USE THIS CODE IN PRODUCTION.",
    "version": 1
  }
}